:020000040800F2
:1000000000180020212100081D2000081F200008E2
:1000100000000000000000000000000000000000E0
:100020000000000000000000000000002120000887
:100030000000000000000000232000082520000828
:1000400091210008912100089121000891210008C8
:1000500091210008912100089121000891210008B8
:1000600091210008912100089121000891210008A8
:100070009121000891210008912100089121000898
:1000800091210008000000000000000091210008FC
:100090000000000091210008912100089121000832
:1000A0000000000091210008912100089121000822
:1000B0009121000800000000912100089121000812
:1000C00010B5064C2378002B07D1054B002B02D02E
:1000D000044800E000BF0123237010BD6800002029
:1000E00000000000C4290008044B10B5002B03D009
:1000F0000349044800E000BF10BDC04600000000F6
:100100006C000020C429000802B471464908490067
:10011000095649008E4402BC7047C04602B471467D
:1001200049084900095C49008E4402BC7047C0463A
:10013000002243088B4274D303098B425FD3030A26
:100140008B4244D3030B8B4228D3030C8B420DD339
:10015000FF22090212BA030C8B4202D312120902C7
:1001600065D0030B8B4219D300E0090AC30B8B4205
:1001700001D3CB03C01A5241830B8B4201D38B03B3
:10018000C01A5241430B8B4201D34B03C01A524158
:10019000030B8B4201D30B03C01A5241C30A8B429B
:1001A00001D3CB02C01A5241830A8B4201D38B0286
:1001B000C01A5241430A8B4201D34B02C01A52412A
:1001C000030A8B4201D30B02C01A5241CDD2C3099C
:1001D0008B4201D3CB01C01A524183098B4201D318
:1001E0008B01C01A524143098B4201D34B01C01A03
:1001F000524103098B4201D30B01C01A5241C3087B
:100200008B4201D3CB00C01A524183088B4201D3E9
:100210008B00C01A524143088B4201D34B00C01AD5
:100220005241411A00D20146524110467047FFE741
:1002300001B5002000F006F802BDC0460029F7D045
:1002400076E770477047C04610B5040000F006FD21
:10025000FA218900FFF76CFF00F066F80120002208
:100260002100404200F030F8002010BD1023064A63
:1002700010B5116800200B431360FFF7E5FF01F094
:100280005BFE002010BDC04600200240024A1368F9
:10029000013313607047C04690000020014B18687E
:1002A0007047C0469000002037B50190FFF7F6FF79
:1002B000019C0500631C5A1E9341E418FFF7EEFFF2
:1002C000401BA042FAD337BD70B58901002814DA6B
:1002D0000F23C0B20340083B114A9B089B009B18A8
:1002E000032210409040FC321500114085408140AF
:1002F000DC69AC432143D96170BD032583082840E4
:10030000A840FC352E00074A9B009B18C02286405F
:100310002940814092009C58B44321439950EBE717
:1003200000ED00E000E100E0094A431E0120934295
:100330000DD8C021074A08485360036A09061B020A
:100340001B0A0B4303620020072390601360704771
:10035000FFFFFF0010E000E000ED00E0054B1A6831
:10036000042802D110431860704704218A431A60A0
:10037000FAE7C04610E000E0704710B5FFF7FCFF59
:1003800010BD0000F0B50B6887B002930023019107
:10039000029ADA4001D107B0F0BD01229A400392DF
:1003A0000399029A0A40009200D188E0019A102134
:1003B000526816008E43022E0ED107251D40AD0057
:1003C0000139A940DC08A4000419276A8F43019968
:1003D0000969A9400F43276203245F00BC40E4433E
:1003E0000568013E2540AC4603251540BD406146E9
:1003F0000D430560012E0FD801998668CD6826400F
:10040000BD40354385604668039915098E43012137
:100410000D409D4035434560C56801992C408D686D
:100420008021BD4049052C43C4600A4247D00121C8
:10043000244C0326A5691E400D43A561A4699D08AF
:100440000C400594059C0F241F49AD00B6006D18A3
:10045000B4409021AF68C905A7430024884208D062
:100460001A490134884204D019490434884200D121
:10047000033CB44000993C430E00AC60154CCD43A6
:1004800027683E43D10301D43E002E4026606768B2
:10049000009E3E43910301D43E002E406660A76853
:1004A000009E3E43D10201D43E002E40A660E66885
:1004B000009F3743920201D42E403700E76001339A
:1004C00066E7C046001002400000014000040048FA
:1004D0000008004800040140002A01D081617047F3
:1004E0008162FCE770B504000120002C3FD025009C
:1004F00041352B78DBB2002B05D12200403213703E
:10050000200001F041FD242301212B702368E068C5
:100510001A68A6688A431A6061681A4A0A401A6112
:100520009968194A11409960012821D18021090256
:10053000314399605868154901435960D9680020D2
:100540000A40DA60616922690A43A16909020A4323
:10055000DA60216AE2690A431A60012219680A43D3
:100560001A60202360642B7020634234207070BDB9
:1005700084210902314399600228DBD180210901DD
:100580005960D7E7FFFFFFF0FF7FFFFF0080000209
:10059000F0B50400413422780300D2B20220202AB0
:1005A00018D11D0040352E78012E13D01B68223043
:1005B00020701E68233886431E601E68064F3E402A
:1005C0001E601E68314319601968084318600020D6
:1005D00022702870F0BDC046FFEFFFFFF0B50500A8
:1005E00041352A780300D2B20220202A17D11C00FC
:1005F00040342678012E12D01B68223028701E68E5
:10060000233886431E601E68054F09023E40314371
:10061000196019680843186000202A702070F0BD26
:10062000FFF0FFFFF0B5036885B00500DB0733D4AA
:100630002B689B0700D58AE02B681B0700D5CAE012
:100640002B685B0700D5EDE02B68DB061AD56A69DD
:10065000BC4C0423012A00D059E1616B02260B43F4
:100660006363636B1A436263FFF718FE0700636BF3
:10067000334200D144E1F821626BAB698A43DB006D
:10068000134363632B689B0600D567E1696A002901
:1006900000D0A4E1002018E00C21AA4C62680A40B6
:1006A000042A0BD063680B40082B10D1C02263686A
:1006B0005202134080225202934208D123689B03C6
:1006C000B6D56B68002BB3D1012005B0F0BD6B68C7
:1006D000012B13D1802322685B0213432360FFF7B1
:1006E000DDFD80260700B60223683342A0D1FFF764
:1006F000D5FDC01B6428F7D90320E6E7002B16D1EF
:100700002368914A80261340236023688F4AB602EB
:1007100013402360FFF7C2FD07002368334200D176
:1007200086E7FFF7BBFDC01B6428F6D9E4E7052B7D
:1007300005D180232268DB0213432360CAE72368C4
:10074000814A134023602368804A1340C6E70C2285
:100750007C4C636813420BD063681340082B15D19F
:10076000C0226368520213408022120293420DD1CC
:1007700023689B0702D5EB68012BA5D1F8212268DD
:100780002B698A43DB001343236055E7EA680123A2
:10079000002A0FD02268022613432360FFF77EFD54
:1007A000070023683342E9D1FFF778FDC01B022818
:1007B000F7D9A1E7226802269A432260FFF76EFD6F
:1007C00007002368334200D136E7FFF767FDC01BFF
:1007D0000228F6D990E7EA6901235A4C002A10D082
:1007E000626A022613436362FFF758FD0700636ADB
:1007F000334200D024E7FFF751FDC01B0228F6D991
:100800007AE7626A02269A436262FFF747FD0700B1
:10081000636A334200D113E7FFF740FDC01B022893
:10082000F6D969E780220021464C5205E369009120
:10083000134208D1E3691343E361E369134003936F
:10084000039B012300938027414E7F0033683B4286
:1008500006D0AB68012B13D1226A1343236230E028
:1008600033683B433360FFF719FD019033683B4227
:10087000EFD1FFF713FD019BC01A6428F6D93BE7BF
:100880000122002B14D1236A022793432362236A97
:10089000033293432362FFF701FD0600236A3B42C4
:1008A00025D0FFF7FBFC2B4B801B9842F6D923E7A2
:1008B000052B0BD1216A013B0B432362236A1A43A8
:1008C0002262FFF7EBFC022706000DE0236A934348
:1008D00004222362236A9343C0E7FFF7DFFC1D4B2A
:1008E000801B984200D907E7236A3B42F5D0009B62
:1008F000012B00D0A8E6E369174A1340E361A3E6A1
:10090000FFF7CCFCC01B022800D8B0E6F4E60532A5
:1009100003D1626B9A436263ADE6626B02261343B6
:1009200001226363636B93436363FFF7B7FC0700C4
:10093000636B334200D1A5E6FFF7B0FCC01B022871
:10094000F6D9D9E600100240FFFFFEFFFFFFFBFFD4
:100950000070004088130000FFFFFFEF0C21464CA1
:1009600062680A408A4209D063680B40082B0ED1A6
:10097000C022636852021340934208D1636BDB03C9
:1009800000D483E62B6A012B00D09DE67EE62B6A1D
:10099000002B11D08026636B760233436363FFF72D
:1009A0007DFC0700636B334200D06FE6FFF776FCF7
:1009B000C01B0228F6D99FE6636B304A802613409D
:1009C0006363FFF76BFC07007602636B334200D171
:1009D0005CE6FFF763FCC01B0228F6D98CE60C220C
:1009E000254C63681340082B00D16DE62368244A28
:1009F0001340236002292FD1FFF750FC8026070007
:100A0000B6042368334221D10F22E36A93432A6B51
:100A10001343E362A96AEB6A62680B4319498025B4
:100A20000A4013436360802322685B0413432360FE
:100A3000FFF734FC0600AD0423682B4200D029E602
:100A4000FFF72CFC801B0228F6D955E6FFF726FCA1
:100A5000C01B0228D5D94FE6FFF720FC80250600F1
:100A6000AD0423682B4200D114E6FFF717FC801B6E
:100A70000228F6D940E6C04600100240FFFFFEFF04
:100A8000FFFFFFFEFF7FC2FF70B5194C88B0102238
:100A90002100684601F0A8FB210004AD10221031AE
:100AA000280001F0A1FB0C22124E73681A40082A9C
:100AB00004D00C2A1AD1104808B070BD0F206A4625
:100AC000990C0140545CF26A0240A95CC02280206B
:100AD000520213404002834201D1084802E093428F
:100AE000FBD10548FFF724FB6043E5E70348E3E754
:100AF000DC29000800100240006CDC0200127A00C1
:100B0000F7B501224F4C06002368019113408B4238
:100B10001FD33268930728D4D3072ED40123226829
:100B200001991A40914200D27EE03368464C5B073F
:100B300000D580E0FFF7A8FF6368444A1B061B0F3F
:100B4000D35CD840424B18600020FFF77DFB0020AB
:100B50000AE02368019993430B4323602368134001
:100B6000019A9A42D5D00120FEBDF02036494B684B
:100B70008343B06803434B60CEE77268324D012A6D
:100B80001AD12B689B03EED503216B688B4313436B
:100B90006B60FFF783FB73680700012B1CD10C22ED
:100BA0006B681340042BB9D0FFF778FB294BC01BAF
:100BB0009842F4D90320D7E7022A03D12B689B017E
:100BC000E2D4D0E7032A03D16B6BDB03DCD4CAE7A2
:100BD0002B689B07D8D4C6E7022B0BD10C226B687D
:100BE0001340082B9AD0FFF759FB1A4BC01B9842B1
:100BF000F4D9DFE7032B11D00C226B68134200D12C
:100C00008CE7FFF74BFB134BC01B9842F4D9D1E79D
:100C1000FFF744FB0F4BC01B9842CBD80C226B68EC
:100C200013409342F4D179E722689A432260226804
:100C30001A4298D179E76368074A1340F268134370
:100C4000636077E70020024000100240002A00089D
:100C50000000002088130000FFF8FFFF014B186818
:100C60007047C04600000020044B054A5B685B05E6
:100C70005B0FD35C034A1068D840704700100240F5
:100C8000102A000800000020F0B5036885B00500B8
:100C9000DB0328D580220021404C5205E3690091F6
:100CA000134208D1E3691343E361E36913400393FB
:100CB000039B012300938027394E7F0033683B421A
:100CC00038D0C022236A92001340364E44D1236AA2
:100CD0001E406B681E43009B2662012B03D1E36913
:100CE000314A1340E3612A68D30706D503202B4914
:100CF0000B6B8343A86803430B63930606D5102050
:100D000026490B6B8343E86803430B63930306D5C3
:100D1000802022490B6B8343686903430B630020E7
:100D2000530517D540211D4A136B8B4329690B438B
:100D300013630FE033683B433360FFF7AFFA019072
:100D400033683B42BDD1FFF7A9FA019BC01A642862
:100D5000F6D9032005B0F0BD69680A409342B6D0C9
:100D60008023226A206A11005B0203432362236A04
:100D70000E483140034023622162D307A7D5FFF715
:100D80008DFA07000222236A1342A0D1FFF786FAE8
:100D9000074BC01B9842F5D9DBE7C0460010024064
:100DA00000700040FFFCFFFFFFFFFFEFFFFFFEFFB3
:100DB0008813000070B504000568C2698368006983
:100DC0002968034360693F4E03433F481343014092
:100DD0000B432B606B683D49206A0B40E1680B4375
:100DE0006B60A369A9680343394801400B43AB60BA
:100DF00080231B02B54210D103203649096B014004
:100E00003548405C9A4213D0082858D8FFF786F935
:100E1000375742574B575757500030498D424CD1A6
:100E20009A422CD1FFF720FF636840005B080BE07B
:100E3000082821D8FFF768F9F6200520182020207F
:100E40001B0063685808264BC0186168FFF770F9EB
:100E500083B200200F22190091430A001B0721686A
:100E60005B0F1343CB6070BDFFF70EFEDCE76368DA
:100E7000580880235B02E7E701200023EAE7FFF739
:100E8000F3FE61684B081818FFF752F980B2E8606A
:100E90000020E8E76168134B4808C018FFF748F9DD
:100EA00080B2F060F4E7FFF7EFFD61684B08F4E70C
:100EB000802361681B024808EFE79A42DCD00120DA
:100EC000D1E7C04600380140F369FFEFFFCFFFFFD5
:100ED000FFF4FFFF00100240FC290008004400401E
:100EE0000024F40000127A00436A30B5DA0706D510
:100EF0000168284C4A682240846A22434A609A0763
:100F000006D50168244C4A682240C46A22434A60DC
:100F10005A0706D50168214C4A682240046B2243D7
:100F20004A601A0706D501681D4C4A682240446B86
:100F300022434A60DA0606D501681A4C8A682240C4
:100F4000846B22438A609A0606D50168164C8A682B
:100F50002240C46B22438A605A0610D50168134DA3
:100F60004A68046C2A4022434A6080225203944219
:100F700005D14A680E4C2240446C22434A601B064D
:100F800006D502680B4953680B40816C0B435360D4
:100F900030BDC046FFFFFDFFFFFFFEFFFFFFFBFF71
:100FA000FF7FFFFFFFEFFFFFFFDFFFFFFFFFEFFF11
:100FB000FFFF9FFFFFFFF7FFF8B504000E001500CD
:100FC0001F002268D36933409B1B59424B41AB42FF
:100FD00001D0002018E0069B0133F3D0069B002BC4
:100FE00013D123680C491A6803200A401A609A68D2
:100FF000A331FF318A439A602200202369321370A3
:101000005370002368342370F8BDFFF747F9069B3F
:10101000C01B8342D5D2E4E75FFEFFFFF0B50700B7
:1010200085B0039369373B7804000D001600022059
:10103000202B46D10138002943D0002A41D08023FB
:10104000A2685B019A4204D12369002B01D10142BD
:1010500037D1230068331A780220012A31D00122C7
:101060001A700023E36621333B70FFF717F9230062
:1010700050331E805E80802602907601210052311E
:101080000A8892B2002A0DD1039B402100932000D0
:10109000029BFFF791FF002812D1202368343B7098
:1010A00020700EE00B880022013B9BB20B80039B5B
:1010B000802100932000029BFFF77EFF002802D0D2
:1010C000032005B0F0BDA3682268B34208D12369AC
:1010D000002B05D12B880235DB05DB0D1385CDE711
:1010E0002B7801351385C9E773B500260400C66661
:1010F000FFF7D4F8164A23680500934208D022006F
:10110000202300206932683413705370207076BD3C
:101110001B681B070FD423681B685B07EFD5802172
:101120000C4B00220093C9032B002000FFF744FF63
:1011300000280BD1E3E78021064B3200009389039E
:1011400003002000FFF738FF0028E4D00320DEE78B
:1011500000380140FFFFFF0170B5041E01D10120DE
:1011600070BD050069352B78DBB2002B04D102007D
:101170006832137000F02CFF2423012122682B70A9
:10118000136820008B431360FFF714FE0128E6D09C
:10119000636A002B02D02000FFF7A6FE23680849EF
:1011A0005A6820000A402A215A609A688A439A6045
:1011B000012219680A431A60FFF796FFD0E7C0467C
:1011C000FFB7FFFF90230122DB059A61C046C046AE
:1011D000C046C046C046C046C046C046C046C046DF
:1011E000C046C0469A62C046C046C046C046C046D9
:1011F000C046C046C046C046C046C046C046C046BF
:10120000C046C046C046C046C046C046C046C046AE
:10121000C046C046C046704790230122DB059A6154
:10122000C046C046C046C046C046C046C046C0468E
:10123000C046C046C046C046C046C046C046C0467E
:10124000C046C046C046C046C046C046C046C0466E
:101250009A62C046C046C046C046C046C046C04668
:10126000C046C046704730B5037844781B0224045A
:1012700087B0E4188378002118226846E41800F04B
:10128000BCFF0023172001210D00C21A95402A003F
:101290002240551EAA416D46EA540133182BF3D162
:1012A0002B78002B00D198E0FFF7B6FF6B465B78F8
:1012B000002B00D194E0FFF7AFFF6B469B78002B2B
:1012C00000D190E0FFF7A8FF6B46DB78002B00D140
:1012D0008CE0FFF7A1FF6B461B79002B00D188E063
:1012E000FFF79AFF6B465B79002B00D184E0FFF794
:1012F00093FF6B469B79002B00D180E0FFF78CFFBA
:101300006B46DB79002B00D17CE0FFF785FF6B4655
:101310001B7A002B00D178E0FFF77EFF6B465B7AEB
:10132000002B00D174E0FFF777FF6B469B7A002B10
:1013300000D170E0FFF770FF6B46DB7A002B00D125
:101340006CE0FFF769FF6B461B7B002B69D0FFF752
:1013500063FF6B465B7B002B66D0FFF75DFF6B4640
:101360009B7B002B63D0FFF757FF6B46DB7B002B8B
:1013700060D0FFF751FF6B461B7C002B5DD0FFF761
:101380004BFF6B465B7C002B5AD0FFF745FF6B464B
:101390009B7C002B57D0FFF73FFF6B46DB7C002B7D
:1013A00054D0FFF739FF6B461B7D002B51D0FFF760
:1013B00033FF6B465B7D002B4ED0FFF72DFF6B4656
:1013C0009B7D002B4BD0FFF727FF6B46DB7D002B6F
:1013D00048D0FFF721FF07B030BDFFF7F3FE65E708
:1013E000FFF7F0FE69E7FFF7EDFE6DE7FFF7EAFEB6
:1013F00071E7FFF7E7FE75E7FFF7E4FE79E7FFF730
:10140000E1FE7DE7FFF7DEFE81E7FFF7DBFE85E724
:10141000FFF7D8FE89E7FFF7D5FE8DE7FFF7D2FE8D
:1014200091E7FFF7CFFE94E7FFF7CCFE97E7FFF7D2
:10143000C9FE9AE7FFF7C6FE9DE7FFF7C3FEA0E7E8
:10144000FFF7C0FEA3E7FFF7BDFEA6E7FFF7BAFE72
:10145000A9E7FFF7B7FEACE7FFF7B4FEAFE7FFF78A
:10146000B1FEB2E7FFF7AEFEB5E790230222DB053F
:101470009A61C046C046C046C046C046C046C04647
:10148000C046C046C046C046C0469A62C046C04636
:10149000C046C046C046C046C046C046C046C0461C
:1014A000C046C046C046C046C046C046C046C0460C
:1014B000C046C046C046C046C046C046704790239E
:1014C0000222DB059A61C046C046C046C046C046FF
:1014D000C046C046C046C046C046C046C046C046DC
:1014E000C046C046C046C046C046C046C046C046CC
:1014F000C046C046C0469A62C046C046C046C046C6
:10150000C046C046C046C046C046704730B50378A6
:1015100044781B02240487B0E41883780021182241
:101520006846E41800F069FE0023172001210D0031
:10153000C21A95402A002240551EAA416D46EA541F
:101540000133182BF3D12B78002B00D198E0FFF753
:10155000B6FF6B465B78002B00D194E0FFF7AFFF3E
:101560006B469B78002B00D190E0FFF7A8FF6B46FD
:10157000DB78002B00D18CE0FFF7A1FF6B461B79D5
:10158000002B00D188E0FFF79AFF6B465B79002BB8
:1015900000D184E0FFF793FF6B469B79002B00D1CD
:1015A00080E0FFF78CFF6B46DB79002B00D17CE0FD
:1015B000FFF785FF6B461B7A002B00D178E0FFF721
:1015C0007EFF6B465B7A002B00D174E0FFF777FF5C
:1015D0006B469B7A002B00D170E0FFF770FF6B46E3
:1015E000DB7A002B00D16CE0FFF769FF6B461B7BB9
:1015F000002B69D0FFF763FF6B465B7B002B66D047
:10160000FFF75DFF6B469B7B002B63D0FFF757FF17
:101610006B46DB7B002B60D0FFF751FF6B461B7CDA
:10162000002B5DD0FFF74BFF6B465B7C002B5AD045
:10163000FFF745FF6B469B7C002B57D0FFF73FFF22
:101640006B46DB7C002B54D0FFF739FF6B461B7DCC
:10165000002B51D0FFF733FF6B465B7D002B4ED044
:10166000FFF72DFF6B469B7D002B4BD0FFF727FF2D
:101670006B46DB7D002B48D0FFF721FF07B030BD64
:10168000FFF7F3FE65E7FFF7F0FE69E7FFF7EDFE12
:101690006DE7FFF7EAFE71E7FFF7E7FE75E7FFF793
:1016A000E4FE79E7FFF7E1FE7DE7FFF7DEFE81E785
:1016B000FFF7DBFE85E7FFF7D8FE89E7FFF7D5FEEA
:1016C0008DE7FFF7D2FE91E7FFF7CFFE94E7FFF734
:1016D000CCFE97E7FFF7C9FE9AE7FFF7C6FE9DE746
:1016E000FFF7C3FEA0E7FFF7C0FEA3E7FFF7BDFECD
:1016F000A6E7FFF7BAFEA9E7FFF7B7FEACE7FFF7EB
:10170000B4FEAFE7FFF7B1FEB2E7FFF7AEFEB5E715
:1017100090230422DB059A61C046C046C046C046FD
:10172000C046C046C046C046C046C046C046C04689
:101730009A62C046C046C046C046C046C046C04683
:10174000C046C046C046C046C046C046C046C04669
:10175000C046C046C046C046C046C046C046C04659
:10176000C046704790230422DB059A61C046C046FC
:10177000C046C046C046C046C046C046C046C04639
:10178000C046C046C046C046C046C046C046C04629
:10179000C046C046C046C046C046C0469A62C04623
:1017A000C046C046C046C046C046C046C046C04609
:1017B000704730B5037844781B02240487B0E418DE
:1017C0008378002118226846E41800F016FD0023F3
:1017D000172001210D00C21A95402A002240551EF3
:1017E000AA416D46EA540133182BF3D12B78002B14
:1017F00000D198E0FFF7B6FF6B465B78002B00D175
:1018000094E0FFF7AFFF6B469B78002B00D190E090
:10181000FFF7A8FF6B46DB78002B00D18CE0FFF7C9
:10182000A1FF6B461B79002B00D188E0FFF79AFFE0
:101830006B465B79002B00D184E0FFF793FF6B468A
:101840009B79002B00D180E0FFF78CFF6B46DB79A2
:10185000002B00D17CE0FFF785FF6B461B7A002B45
:1018600000D178E0FFF77EFF6B465B7A002B00D15A
:1018700074E0FFF777FF6B469B7A002B00D170E096
:10188000FFF770FF6B46DB7A002B00D16CE0FFF7AF
:1018900069FF6B461B7B002B69D0FFF763FF6B462C
:1018A0005B7B002B66D0FFF75DFF6B469B7B002BBD
:1018B00063D0FFF757FF6B46DB7B002B60D0FFF751
:1018C00051FF6B461B7C002B5DD0FFF74BFF6B4637
:1018D0005B7C002B5AD0FFF745FF6B469B7C002BAF
:1018E00057D0FFF73FFF6B46DB7C002B54D0FFF750
:1018F00039FF6B461B7D002B51D0FFF733FF6B4642
:101900005B7D002B4ED0FFF72DFF6B469B7D002BA0
:101910004BD0FFF727FF6B46DB7D002B48D0FFF74E
:1019200021FF07B030BDFFF7F3FE65E7FFF7F0FEDC
:1019300069E7FFF7EDFE6DE7FFF7EAFE71E7FFF7F6
:10194000E7FE75E7FFF7E4FE79E7FFF7E1FE7DE7E5
:10195000FFF7DEFE81E7FFF7DBFE85E7FFF7D8FE46
:1019600089E7FFF7D5FE8DE7FFF7D2FE91E7FFF796
:10197000CFFE94E7FFF7CCFE97E7FFF7C9FE9AE7A3
:10198000FFF7C6FE9DE7FFF7C3FEA0E7FFF7C0FE27
:10199000A3E7FFF7BDFEA6E7FFF7BAFEA9E7FFF74B
:1019A000B7FEACE7FFF7B4FEAFE7FFF7B1FEB2E773
:1019B000FFF7AEFEB5E790230822DB059A61C0462B
:1019C000C046C046C046C046C046C046C046C046E7
:1019D000C046C046C0469A62C046C046C046C046E1
:1019E000C046C046C046C046C046C046C046C046C7
:1019F000C046C046C046C046C046C046C046C046B7
:101A0000C046C046C046C046704790230822DB054A
:101A10009A61C046C046C046C046C046C046C046A1
:101A2000C046C046C046C046C046C046C046C04686
:101A3000C046C046C046C046C046C046C046C04676
:101A4000C0469A62C046C046C046C046C046C04670
:101A5000C046C046C046704730B5037844781B0284
:101A6000240487B0E4188378002118226846E4181B
:101A700000F0C3FB0023172001210D00C21A95407E
:101A80002A002240551EAA416D46EA540133182B04
:101A9000F3D12B78002B00D198E0FFF7B6FF6B460F
:101AA0005B78002B00D194E0FFF7AFFF6B469B788B
:101AB000002B00D190E0FFF7A8FF6B46DB78002BEE
:101AC00000D18CE0FFF7A1FF6B461B79002B00D102
:101AD00088E0FFF79AFF6B465B79002B00D184E02A
:101AE000FFF793FF6B469B79002B00D180E0FFF757
:101AF0008CFF6B46DB79002B00D17CE0FFF785FF84
:101B00006B461B7A002B00D178E0FFF77EFF6B4617
:101B10005B7A002B00D174E0FFF777FF6B469B7A6E
:101B2000002B00D170E0FFF770FF6B46DB7A002BD3
:101B300000D16CE0FFF769FF6B461B7B002B69D07F
:101B4000FFF763FF6B465B7B002B66D0FFF75DFF03
:101B50006B469B7B002B63D0FFF757FF6B46DB7B0D
:101B6000002B60D0FFF751FF6B461B7C002B5DD034
:101B7000FFF74BFF6B465B7C002B5AD0FFF745FF0E
:101B80006B469B7C002B57D0FFF73FFF6B46DB7CFF
:101B9000002B54D0FFF739FF6B461B7D002B51D033
:101BA000FFF733FF6B465B7D002B4ED0FFF72DFF19
:101BB0006B469B7D002B4BD0FFF727FF6B46DB7DF1
:101BC000002B48D0FFF721FF07B030BDFFF7F3FE31
:101BD00065E7FFF7F0FE69E7FFF7EDFE6DE7FFF75A
:101BE000EAFE71E7FFF7E7FE75E7FFF7E4FE79E746
:101BF000FFF7E1FE7DE7FFF7DEFE81E7FFF7DBFEA3
:101C000085E7FFF7D8FE89E7FFF7D5FE8DE7FFF7F9
:101C1000D2FE91E7FFF7CFFE94E7FFF7CCFE97E700
:101C2000FFF7C9FE9AE7FFF7C6FE9DE7FFF7C3FE81
:101C3000A0E7FFF7C0FEA3E7FFF7BDFEA6E7FFF7AB
:101C4000BAFEA9E7FFF7B7FEACE7FFF7B4FEAFE7D0
:101C5000FFF7B1FEB2E7FFF7AEFEB5E710B504003F
:101C6000FFF701FBE01CFFF751FCA01DFFF7A1FDF2
:101C700020000930FFF7F0FE10BDFF22010A030C1F
:101C80001140134009020B4302401800120482B0B5
:101C9000104302B07047000007B56B46D91D012301
:101CA00008701A000148FFF7B9F907BDE0000020ED
:101CB000222310B598B00B93123B01240F930023FD
:101CC0000BA80E9413941493FEF7ACFC002800D0DC
:101CD000FEE70723039001930490043B210001A831
:101CE0000293FEF70DFF002800D0FEE721230790A6
:101CF000089005A80593FEF7C7FF041E00D0FEE775
:101D0000FEF7ACFFFA218900FEF712FAFEF70CFB92
:101D10000420FEF723FB0120220021004042FEF7B1
:101D2000D3FA18B010BD0000F0B58DB0FEF79EFAE2
:101D3000794B00211B680026986800F066FAFFF7CF
:101D4000B7FF8020754BC0035969012701435961D2
:101D500080215A698902024090200192019A5A69B1
:101D6000C0050A435A615B6900220B4002930F21B0
:101D7000029BFEF7B1FB0F23902003AC21000393DD
:101D8000C0050C3BE3606760A660FEF7FBFA644D9C
:101D9000644B28002B60644BAE606B60EF602E617B
:101DA0006E61AE61EE612E62FEF79CFB0100B042F7
:101DB00000D0FEE72800FEF7EBFB011E00D0FEE797
:101DC0002800FEF70BFC002800D0FEE7574B584ACE
:101DD00098601A60962212025A600C22D86018612C
:101DE0009861D8611862586218005A61FFF7B4F917
:101DF000051E00D0FEE74F48FFF73FFF030A2070A3
:101E0000000CA070FF200F2600026370FFF735FF63
:101E10006E44030A3070000C7370B07028001226F4
:101E2000FFF72BFF6E44030A3070000C7370B07024
:101E300028001526FFF721FF6E44030A3070000CBE
:101E40007370B0703B48FFF718FF030A2073000C53
:101E5000A0731B2628006373FFF70FFF6E44030A6D
:101E60003070000CB070FF20737000021E26FFF768
:101E700004FF6E44030A3070000C7370B0702800C9
:101E80002126FFF7FAFE6E44030A3070000C7370CF
:101E9000B0702848FFF7F1FE030A2076000CA07608
:101EA000272628006376FFF7E8FE6E44030A3070A9
:101EB000000C7370B07028002A26FFF7DEFE6E4417
:101EC000030A3070000CB070FF2073702D250002E3
:101ED000FFF7D3FE6D442870030A000C6B70A870E6
:101EE000FA256D002000FFF7B9FE2800FEF7DCF9A7
:101EF00006A8FFF7B3FE2800FEF7D6F909A8FFF7FA
:101F0000ADFE2800FEF7D0F906A8FFF7A7FE2800CF
:101F1000FEF7CAF9E6E7C0460400002000100240C0
:101F200094000020005400400E090020E000002032
:101F3000003801409AFA000007B50120114B996959
:101F40000143996180219A69490502400092009AF3
:101F5000DA6906380A43DA610022DB690B40019333
:101F60001100019BFEF7B0F900220220110040424F
:101F7000FEF7AAF90022012011004042FEF7A4F961
:101F800007BDC046001002407FB50E4B02689A4262
:101F900015D112230322029301A9113B0A48019291
:101FA000039304920593FEF7EDF98020074A80031E
:101FB000D1690143D161D36903400093009B07B00D
:101FC00000BDC0460054004000140048001002400C
:101FD0007FB5104B02689A4219D180200E4AC00189
:101FE000916901439161936901A903400093009BAA
:101FF000C023DB000193022302930023902003936C
:1020000003330493C005023B0593FEF7BBF907B009
:1020100000BDC04600380140001002407047FEE796
:102020007047704710B5FEF731F9FEF7A6F910BDFD
:102030000C4B10B519680200002901D10A4919603A
:102040000A49186809680A4C0968821809198A42FD
:1020500006D900F09FF80C2303600120404210BD18
:102060001A60FCE7840000205401002008ED00E025
:1020700000FBFFFF70B50E0015000C00A31B9D4276
:1020800001DC280070BD2078FFF706FE0134F5E77B
:1020900001204042704780239B0100204B60704725
:1020A0000020704770B50E0015000C00A31B9D4268
:1020B00001DC280070BD00E000BF20700134F5E7AE
:1020C0000121114B11481A680A431A605A680240EC
:1020D0005A601A680E4802401A601A680D48024099
:1020E0001A605A680C4802400F205A60DA6A82432C
:1020F000DA621A6B094802401A635A6B8A435A63C0
:1021000000229A607047C046001002400CB8FF08D9
:10211000FFFFF6FEFFFFFBFFFFFFC0FF2CFEFFFFF0
:102120001348854604200168090E1F22914205D1FB
:102130001048012101601048002101600F4810493A
:10214000104A002302E0D458C4500433C4188C420F
:10215000F9D30D4A0D4C002301E013600432A24272
:10216000FBD3FFF7ADFF00F01BF8FFF7DDFDFEE747
:10217000001800201810024000000140000000205C
:1021800068000020842A0008680000205401002014
:10219000FEE70000014B18687047C04604000020AD
:1021A00070B500260C4D0D4C641BA410A64209D13D
:1021B000002600F007FC0A4D0A4C641BA410A6423E
:1021C00005D170BDB300EB5898470136EEE7B30078
:1021D000EB5898470136F2E77C2A00087C2A000871
:1021E0007C2A0008802A0008002310B59A4200D1FA
:1021F00010BDCC5CC4540133F8E70300821893424D
:1022000000D1704719700133F9E74A424A418023EF
:1022100010B55200DB0000F001F810BDF0B51D0054
:102220004F4B85B01E6804000F000092002E05D0B1
:10223000B369002B02D1300000F094F9494B9C4265
:1022400050D17468009B022B05D0012B00D984E08B
:10225000002D00DA81E02100300000F015F9616BFB
:10226000002908D023004433994202D0300000F006
:1022700041FA002363630023A3616360A3891B0603
:1022800003D52169300000F035FAA389364A13409E
:10229000A381009B022B5AD003AB02AA210030007D
:1022A00000F0F6F9A3891843A081002D24D1029DE6
:1022B000280000F015FA0195071E42D1029B0193F8
:1022C000AB4239D1012040420223A2891343A381AA
:1022D0000023A3602300473323602361012363614C
:1022E00005B0F0BD214B9C4201D1B468AAE7204B58
:1022F0009C42A7D1F468A5E7002FD9D0B369002B81
:1023000002D1300000F02EF9009B012B03D1A389EC
:10231000009A1A43A2810820A3892760276165617A
:10232000184018D0012018400023984211D06D4267
:10233000A360A5611800D3E7019800F0D1F9071E4A
:10234000C0D08023A289019D1343A381D6E700203A
:10235000BAE7A560C4E7A060C2E701204042BFE73A
:10236000040000203C2A00085CF3FFFF5C2A000800
:102370001C2A0008F7B58A8905000C00130760D4F1
:102380004B68002B04DC0B6C002B01DC0020FEBD35
:10239000E76A002FFAD000232E682B6080235B01B0
:1023A0001A4034D0606DA3895B0706D56368C01AF4
:1023B000636B002B01D0236CC01A0200216A00233A
:1023C0002800E76AB847A189431C06D12B681D2B5A
:1023D00031D82C4ADA40D3072DD500236360236916
:1023E0002360CB0405D5431C02D12B68002B00D100
:1023F0006065616B2E600029C8D023004433994288
:1024000002D0280000F076F900206063BFE70123C6
:10241000216A2800B847431CC5D12B68002BC2D0C5
:102420001D2B01D0162B01D12E60AFE74023A289CE
:102430001343A381ABE740230B430120A381404218
:10244000A5E70F69002FA1D00B680F60DB1B01937C
:102450000023920700D14B69A360019B002B00DC95
:1024600094E7019B3A00216A2800A66AB047002839
:1024700003DC4023A2891343DFE7019B3F181B1AAB
:102480000193EAE7010040200B6970B505000C00DC
:10249000002B01D1002070BD002804D08369002BDF
:1024A00001D100F05FF80B4B9C4209D16C680C2203
:1024B000A35E002BEED021002800FFF75BFFEAE7C8
:1024C000054B9C4201D1AC68F1E7044B9C42EED134
:1024D000EC68ECE73C2A00085C2A00081C2A00088B
:1024E00010B5024900F0B2F810BDC04689240008BA
:1024F000002310B50400036043608360818143665C
:10250000C281036143618361190008225C30FFF7D7
:1025100074FE054B24626362044BA362044BE362C6
:10252000044B236310BDC0466928000891280008A9
:10253000C9280008F528000870B568254A1E5543CB
:102540000E002900743100F01FF9041E08D000218C
:102550002A00016046600C30A0606832FFF74DFE33
:10256000200070BD836913B50400002B28D183645B
:10257000C3640365134B144A1B688262019398423B
:1025800001D101238361200000F020F86060200069
:1025900000F01CF8A060200000F018F80022E060B5
:1025A00004216068FFF7A4FF01220921A068FFF75A
:1025B0009FFF02221221E068FFF79AFF0123A36127
:1025C00013BDC046182A0008E1240008F8B51E4BC8
:1025D00007001E68B369002B02D13000FFF7C2FF6D
:1025E0004836B4687368013B04D53368002B07D0C4
:1025F0003668F6E70C22A55E002D0DD06834F2E7B0
:1026000004213800FFF798FF30600028F0D10C2338
:1026100004003B602000F8BD012320005B42E38101
:102620000233A38165662560A560656025616561EB
:10263000A561082229005C30FFF7DFFD6563A56313
:10264000A564E564E6E7C046182A0008F7B504006B
:102650000700002601914834002C01D13000FEBD56
:102660006368A5680093009B013B009301D5246833
:10267000F2E7AB89012B08D90E22AB5E013304D0FF
:1026800029003800019B984706436835EBE70000B6
:1026900070B50E001D000E23C95E90B01400002915
:1026A00007DA00232B60B3891B0611D48023DB00DB
:1026B0000FE001AA00F04AF90028F2DBF022029BA9
:1026C00012021340054A9B185A4253412B60EDE712
:1026D00040230020236010B070BDC04600E0FFFF23
:1026E00010B5034B0100186800F04EF810BDC0464D
:1026F0000400002070B50500002910D00C1F2368CD
:10270000002B00DAE418280000F046F91D4A13688F
:10271000002B05D163601460280000F03EF970BD05
:10272000A34209D9216860188342F3D118685B6815
:1027300041182160EEE713005A68002A01D0A24236
:10274000F9D919685818A0420BD1206809185818EF
:1027500019608242E0D110685268411819605A60CD
:10276000DAE7A04202D90C232B60D5E72168601874
:10277000824203D1106852684118216062605C6037
:10278000CAE7C04688000020032370B5CD1C9D43D6
:10279000083506000C2D1ED20C25A9421DD830008C
:1027A00000F0FAF8254A14682100002919D1244CB8
:1027B0002368002B03D1300000F044F8206029008A
:1027C000300000F03FF8431C2CD10C233000336064
:1027D00000F0E3F803E0002DDFDA0C233360002083
:1027E00070BD0B685B1B1AD40B2B03D90B60CC1884
:1027F000256003E08C420ED163681360300000F066
:10280000CCF8200007220B30231D9043C31AE7D0D9
:102810005A42E250E4E74B6863600C00EEE70C00BC
:102820004968C2E70323C41C9C43A042E0D0211A9C
:10283000300000F007F8431CDAD1C6E7880000201A
:102840008C000020002370B5064C050008002360B2
:10285000FFF7EEFB431C03D12368002B00D02B6055
:1028600070BDC0465001002070B50C000E25495FB8
:1028700000F094F8002803DB636D1B18636570BDDE
:10288000A389024A1340A381F9E7C046FFEFFFFF87
:10289000F8B51F008B8905000C001600DB0505D577
:1028A0000E23C95E0022022300F062F8A389054AC4
:1028B00028001340A38132000E23E15E3B0000F0AC
:1028C0001FF8F8BDFFEFFFFF70B50C000E25495F44
:1028D00000F04EF8A389421C03D1054A1340A3819E
:1028E00070BD802252011343A3816065F8E7C046A2
:1028F000FFEFFFFF10B50E23C95E00F015F810BD05
:1029000070B50500080011000022064C22601A0074
:10291000FFF7B0FB431C03D12368002B00D02B60D2
:1029200070BDC04650010020002370B5064C050064
:1029300008002360FFF7ACFB431C03D12368002B86
:1029400000D02B6070BDC04650010020002370B540
:10295000064C0500080011002360FFF79CFB431C98
:1029600003D12368002B00D02B6070BD50010020E4
:1029700070B50500080011000022064C22601A0004
:10298000FFF78EFB431C03D12368002B00D02B6084
:1029900070BDC046500100207047704770B50500FB
:1029A000080011000022064C22601A00FFF77AFB93
:1029B000431C03D12368002B00D02B6070BDC046A0
:1029C00050010020F8B5C046F8BC08BC9E467047D0
:0C29D000F8B5C046F8BC08BC9E46704735
:1029DC0002030405060708090A0B0C0D0E0F101054
:1029EC000102030405060708090A0B0C0D0E0F1053
:1029FC0000040802000000000000000001020304B3
:102A0C00060708090000000001020304080000206A
:102A1C0000000000000000000000000000000000AA
:102A2C00000000000000000000000000000000009A
:102A3C00000000000000000000000000000000008A
:102A4C00000000000000000000000000000000007A
:102A5C00000000000000000000000000000000006A
:102A6C00000000000000000000000000000000005A
:042A7C00E900000865
:042A8000C100000889
:102A840000127A0008000020000000003C2A000820
:102A94005C2A00081C2A0008000000000000000056
:102AA4000000000000000000000000000000000022
:102AB4000000000000000000000000000000000012
:102AC4000000000000000000000000000000000002
:102AD40000000000000000000000000000000000F2
:082AE4000000000000000000EA
:0400000508002121AD
:00000001FF
